:060000000A128A11FC2F18
:100D4C00F2007208831203138600881208138817A6
:100D5C000730F1007D30F000F00BB22EF10BB22E0B
:100D6C008312031388130800F20072088312031312
:100D7C0086008816081388170730F1007D30F000C4
:100D8C00F00BC62EF10BC62E83120313881308002A
:100D9C00831603138601880138300A128A11A6269D
:100DAC000A128A110C300A128A11A6260A128A110A
:100DBC0006300A128A11A6260A128A1101300A126A
:100DCC008A11A6260A128A1180300A128A11A626C6
:100DDC000A128A116B300A128A11BA260A128A1167
:100DEC0065300A128A11BA260A128A1179300A124F
:100DFC008A11BA260A128A1170300A128A11BA267E
:100E0C000A128A1161300A128A11BA260A128A1140
:100E1C0064300A128A11BA260A128A11C0300A12D8
:100E2C008A11A6260A128A110A128A1123270A127B
:100E3C008A11142F0A128A110028F030831603131A
:100E4C008700831203130714871007118711071EDD
:100E5C00302F312F382F37300A128A11BA260A1246
:100E6C008A11372F871E3B2F3C2F432F38300A1205
:100E7C008A11BA260A128A11422F071F462F472FB2
:100E8C004E2F39300A128A11BA260A128A114D2FA6
:100E9C00871F512F522F592F2F300A128A11BA2621
:100EAC000A128A11582F0710871407118711071E71
:100EBC00602F612F682F34300A128A11BA260A1259
:100ECC008A11672F871E6B2F6C2F732F35300A12E8
:100EDC008A11BA260A128A11722F071F762F772FC2
:100EEC007E2F36300A128A11BA260A128A117D2FE9
:100EFC00871F812F822F892F2A300A128A11BA2636
:100F0C000A128A11882F0710871007158711071EE0
:100F1C00902F912F982F31300A128A11BA260A126B
:100F2C008A11972F871E9B2F9C2FA32F32300A12CA
:100F3C008A11BA260A128A11A22F071FA62FA72FD1
:100F4C00AE2F33300A128A11BA260A128A11AD2F2B
:100F5C00871FB12FB22FB92F2D300A128A11BA2642
:100F6C000A128A11B82F0710871007118715071E50
:100F7C00C02FC12FDA2F6F300A128A11BA260A122B
:100F8C008A116E300A128A11BA260A128A112F306F
:100F9C000A128A11BA260A128A1163300A128A11AD
:100FAC00BA260A128A11D92F871EDD2FDE2FE52FC4
:100FBC0030300A128A11BA260A128A11E42F071F3E
:100FCC00E82FE92FF02F3D300A128A11BA260A12A7
:100FDC008A11EF2F871FF32FF42FFB2F2B300A12C0
:100FEC008A11BA260A128A11FA2F080083010A12F2
:040FFC008A11CE2E5A
:00000001FF
